:100000000C9450080C9478080C9478080C94780898
:100010000C9478080C9478080C9478080C94780860
:100020000C9478080C9478080C9478080C94780850
:100030000C9478080C9478080C9478080C94780840
:100040000C94CA270C9478080C9478080C947808BF
:100050000C9478080C9433290C9478080C94780844
:100060000C9414280C947808446561637469766173
:100070007465640053656C65637420546970004551
:100080006E74657220546970204E616D65000000C9
:100090000000240027002A0000000000250028009E
:1000A0002B000000000023002600290004040404A3
:1000B0000404040402020202020203030303030312
:1000C00001020408102040800102040810200102EF
:1000D00004081020506C6561736520776169742E87
:1000E0002E2E004144433A20200074656D703A2062
:1000F00000536574206D6561737572656400537497
:1001000065703A200043616C6962726174696F6E58
:100110000000494D553A2020002056005663633AAE
:1001200020200020560056696E3A200020430054DB
:100130006D703A20003030300030303000560043CF
:100140000020484F4C4400204845415400574F522E
:100150004B5900424F4F535400534C4545500020DB
:10016000204F4646004552524F5200000000080002
:10017000020100000304070000000000000000125C
:1001800000060506060506072F3300F82AF42BF8AB
:100190000000000003BF20060000C1282A47D775D1
:1001A000E9321214813314835214C5710C06620CA7
:1001B00046520CC55204454304C47320C5700C1F3D
:1001C000F001935008C8711CC14104445304C56236
:1001D0000486520C45620CC66114064214042314B2
:1001E000C201002B16E3C8C1FD437CE4FF077DC0BC
:1001F0001F003DC447FE3F08002C1BCC3331298132
:10020000220E02218EE2208EE2288CE2280CC330DE
:100210000AC364002D090F22D729F0076C2E0908A4
:10022000624129F003042F33933BBB6C636A8AC697
:10023000D4148D595334A6A6684C4DD198354563D6
:100240006A8AC68C311A535334A6A668CC18A331D7
:100250003545636A8AC6AC010030561D2BBFF0726B
:100260004C8D0331535221D591104A812048812071
:10027000097128C8802889702C89703088703048AE
:100280008030488030F1FF3149703088703088709C
:100290003088702C898028C9702808812009812025
:1002A000889110CA512194322D91D34CC70200314C
:1002B0001D926AC1B0822409A2180CE1081FF00146
:1002C00090F00C4DB11C8882FEFFFF1F323BDD2AEF
:1002D000C13083484E132D53521D57A12292232122
:1002E0009004199005119005119005A950544221D0
:1002F000546A4A264552494BB4BE48919468152920
:10030000926AFA80FF800833501C3BBF7092400F06
:10031000132595611917A114CA901C89902488800F
:100320002C48802C48802C0885362153022DCCD3B4
:1003300034CF123190E34093422514AA422884829C
:1003400018B80509120511120419944221AEC23AD7
:10035000A844621E285100344C9F1AC1F0B350CB00
:10036000C4929AC805BD9E23409C43409C43409A3A
:1003700063409A634098834016844096A34094C398
:100380004094C34092E34010E4409003410E044186
:100390000C24418C43410A44418A0FF89F845CE855
:1003A000AF00003544DD2ABFB09011B941DF805461
:1003B000E88F401244600E24788A8CD0066D580C69
:1003C000454892444016444096A4425F7504088311
:1003D00004088304C8820849920C4AA11059711D6F
:1003E0005522354F942C0036611D2BBF308348CDEC
:1003F000032D53522196A110499120088124C880D1
:100400002C88802C88705468D55121C681200363C4
:1004100020825320413468C3263485122C48122888
:100420000A12288AC4C46390006190006190006140
:100430000E215190015190214190422992E23AAA15
:10044000645A22A7998E0500373CDC3ABF30F03F52
:1004500040A150533221533221534A4AA6444AA65E
:100460006442A694944C89944C89A448C99448C980
:100470009448C994488A94488A94482A299114290E
:1004800091140700385E1D2BBFB0A240D0422196C8
:100490008111DAB0108BA0204AA0204A9028499000
:1004A00028499028499028499028899020C990206F
:1004B00009A1322C64629EA77122A53AAE42319204
:1004C0004141902151102151902061E263246552F5
:1004D000924041126131144123B2E23A2A257A96C0
:1004E000040039621D2BBFF0724C8D132D53521D29
:1004F0009691144A8120C98028C88028C870304845
:100500008030488030488030488030718CA4280189
:10051000A22841822C815234C23668431420C4235D
:1005200020063320C8611CD651A155C78028C88039
:100530002808712448811C49913A2C84522406725F
:100540009A0959003A0F4887C129F003841F483F90
:10055000E0030400000004FFFF0000100005060592
:1005600005040506121A00001A001A000000000017
:1005700000C5200600205C012B1011A69DCFC00DE8
:10058000DF119D811BBE03002C0C07AD5C45712261
:10059000318806002D0749645F81042E07A5B45CED
:1005A0004106300C11A79C018915FFFF311B310B4F
:1005B00006BF9C01630CFFFF1F320F11A79C81C86F
:1005C0000D7FEEF484DF9B01330F11A79C81C80DD2
:1005D000FF86931B7ECE06340E11A79C818015FFEB
:1005E000B1921BFE07350F11A79C01E9097F4FE46B
:1005F000869FB301360F11A79C01E9097F8FC48A3A
:100600001FB301370B10AB9C01A80DFFFF1F380F64
:1006100011A79C0189157FECC48A1FB301390F1102
:10062000A79C0189157FACE4869FB3013A0905B602
:100630005C41C6670000000004FFFF0000BF00032C
:10064000020404040505090F00FD0AFD0BFF0194D7
:10065000033C0A44200500C8332108B10C330E9135
:10066000002208347B33225300230E861973A2968E
:1006700061895A86256A012414B7F9F2C241892298
:10068000294CD2350923A9328819002511A70973ED
:1006900042254A4AAD711AB5941231012612A709B2
:1006A00073C4288BB228543529A94595480B2706D1
:1006B000317C3306280CC3FBB29228897A8BB200B6
:1006C000290CC3FB32B2288B7A8992082A0D77391C
:1006D000F34A95B62D69AA65002B0B7719F3E2DA78
:1006E0003064710D2C0952DC32862451002D07171D
:1006F00049330E012E07220C3386002F0CA709B3B5
:10070000D3382DA7E53406300DA709B3B64AEA6BF6
:1007100092651300310DA709F35231C9A2B8B76130
:1007200008320CA70973062555FB791802330FA769
:1007300009330E715ADD8138569341013411A709EE
:10074000735331C9A25A1226C390C61500350FA79C
:1007500009330E726548C4B8AC2683023610A70967
:10076000B386288D2B4322AAD6645000370EA709E2
:10077000330E711AA7711AA771083811A709B3B6F9
:100780004A9A64D95649D524CB2600390FA7097354
:10079000062575548624AE4643043A08720C338607
:1007A00078083B0AA2DC3286784812053C09A50A83
:1007B00033B38E69073D094729330E39E1103E0AEC
:1007C000A50A33D28E5947003F0EA7097306255557
:1007D000E3B4398733004012A709730625350D4A63
:1007E000A6449322E7C0A000410DA709F3D224AB91
:1007F000A4D6E16A0D4212A7093306294C523119D9
:10080000A430498DC92001430DA70973062595FB26
:100810009A0C0A00440DA7093306294C523F26833F
:1008200004450DA709330E727990E2E66108460C83
:10083000A709330E727990E2CE00470FA70973061D
:100840002595DB86D49A0C0A00480AA7093352D7AB
:10085000E1EA35490AA50A330629ECA7414A14A85A
:1008600009F306350772200772200772200AB321A8
:10087000034B11A709335231C9A2DA988451560AA1
:1008800093344C0AA70933E2FE3C0C014D10A70932
:100890003352755B2A4A458AA448B5064E0FA7090C
:1008A000335275543229D21271B5064F0CA7097311
:1008B0000625F5D7645000500DA709332EA97518E9
:1008C00092B83300510FC7E9720625F54B2655063D
:1008D0003507045210A709332EA9751892282B85C5
:1008E00049AA065311A709730625B5033BA003AA1D
:1008F0009A0C0A00540AA709330E59DCDF00550B85
:10090000A7093352FF9A0C0A005611A70933526BFC
:100910009245599455C2244CD20C5710A709335212
:100920004F911449911429DD12005810A709335230
:1009300035C92A699C2659255503590DA7093352F3
:1009400035C92A69DC1B005A0CA709330E71DAE796
:100950007818025B0AC4FB3206AD7F1B025C11A74C
:1009600009337220CE811C88732007E21C085D0ABF
:10097000C4FA3286AC7F1B045E0A4769F3D224AB0B
:10098000A4015F0718F8320E026007338B33B202FE
:10099000610F770973061D889361484565480262B7
:1009A0000FA70933E296211155EBA80C0900630C3F
:1009B0007709730625955B934101640DA709B35B25
:1009C00086445C1D952109650E77097306255587B8
:1009D000730E0C0A00660EA709F3B65216C5E12085
:1009E000C68D006714A7D97286444CC2248C862811
:1009F00007062555934101680CA70933E29621119A
:100A000055AF01690AA50A737474EC69106A0DD6B2
:100A1000D93275CADA55342643026B0FA70933E27F
:100A2000564D493435D132250D6C09A50A33C6FE21
:100A300034086D1077093316258AA4488AA4488A99
:100A4000D4006E0B77093392211155AF016F0C77EB
:100A500009730625F59A0C0A00700FA7D932922166
:100A60001155EBA80C495C06710DA7D97286445C40
:100A70001D9521891B720C770933A2494BC2246E44
:100A800005730F7709730625D5814107D46450009B
:100A9000740C9709B3E270D8E26ED9027510770929
:100AA00033C2244CC2244CC2248C8624760E77098F
:100AB000335235C9A2AC12266906770E7709335234
:100AC00053244552A4744B00780D770933D224ABDC
:100AD000A495AC9206790DA6D93242DF94251593E0
:100AE00021017A0A7709330E69AFC3107B0DC5FB6C
:100AF000B296B01A696A1656077C06C1FC323E7D72
:100B00000EC5F932D6B0966A521A5626007E0A37BA
:100B100079733429D21400A00500C833A108B10CA0
:100B200033A46108A211860933A3218912A9922551
:100B30005132442100A311A709F3B6521C0E629C46
:100B40008A4996240B00A40E673933D26490B228E8
:100B50008B06250DA510A709335235C92AD9208641
:100B60008318D700A608B1FC32066510A70EB4FAA8
:100B7000729448542253224A8902A807259A333294
:100B80002DA9159818B3862C4C224B9428A1122518
:100B9000929484D91001AA0C753973A4D2124543DA
:100BA0003A08AB0D8719F3A27E8BC2288CC228AC01
:100BB00007462933AE0DAD07154A330601AE159829
:100BC00018B3862C4C9249891265524A4A9414B340
:100BD0002102AF061699330EB00A446B7394484A4B
:100BE0001400B10E9719F3E2DA3064711D1B860010
:100BF000B20B64497394284B946C08B30B6449732B
:100C000094A828250A00B408338BB3921200B50CBF
:100C100097E93252AFDBB2C83100B616A709738626
:100C2000214BB4444B92210993300993300993002E
:100C3000B707224C338600B80834DAB2A64401B9AB
:100C40000863497312A965BA0A654973964C4BE665
:100C500041BB0E871933A2300AA330CAA27E03BC5F
:100C60000FA7097352B97188C4248B322515BD0EA4
:100C7000A7097352B94919A23814E321BE12A70972
:100C800073C428CD812CAA4862924599920ABF0D5F
:100C9000A709F372B8DA9CAAC9A000C010C70973EB
:100CA0007220077274ABA4EA70B506C10DC7097350
:100CB000DBD1AD92AAC3D51AC20FC709F3D224ABB8
:100CC000635B255587AB35C30FB709733469C7B666
:100CD0004AAA0E576B00C40FB70973B228CBB1AD47
:100CE00092AAC3D51AC50FB709B3B6DA986495545A
:100CF0001DAED600C615A709739421CAA22CCAA29C
:100D00006C58A22CCAA22C1A02C710D7D972062579
:100D100095FB9A0CA216851A00C813C70973722096
:100D200007726C1892381EB2B83A0C01C910C70984
:100D300073DBB16148E278C8E2EA3004CA12C7093D
:100D4000F3D224AB23C390C4F190C5D56108CB1274
:100D5000B70973B228CB916148E278C8E2EA30045F
:100D6000CC0DC50A33D23A3048614F8300CD0DC552
:100D70000A33B33A3048614F8300CE0DC50AB3B28F
:100D8000A4960E52D8D320CF0CB50A33322D1DA411
:100D9000B0A741D015A80873062D8CD2241DC224FB
:100DA0004DD2244DC2689000D112B70973346947FF
:100DB000D251C9A4488AB4445C03D210C7097372E3
:100DC0002007727050525F934101D30DC70973DB46
:100DD000C141497D4D0605D410C709F3D224AB4368
:100DE0008392FA9A0C0A00D50FB709733469870603
:100DF00025F535191400D60FB70973B228CBA141D8
:100E0000497D4D0605D70D771933D224ABA495AC97
:100E10009206D816C7F9B2934109B7444BA4488A41
:100E2000944CC9C664506200D90FC7097372200779
:100E3000722CF56B322800DA0CC70973DBB1D4AF22
:100E4000C9A000DB0EC709F3D224AB23A95F9341ED
:100E500001DC0EB70973B228CB91D4AFC9A000DD75
:100E60000EC70973DBB1544DB24A1AB701DE0EA7A3
:100E70000933E2785852EB30247119DF14A609B314
:100E8000A62CC9922851B2A896644996240A00E07B
:100E900013B709B3722007726CD081381986545485
:100EA0008624E111B70973DBC14107E2641852518E
:100EB000199200E213B709F3D224AB43830EC4C9DD
:100EC00030A4A2322401E313A709B3A424D2A14180
:100ED00007E264185251199200E413A70973B2286B
:100EE000CBA14107E264185251199200E513B709EA
:100EF000F3C428D4B14107E264185251199200E6B4
:100F00000F7709732C512D4A0625CAA28A32E70FA2
:100F1000A7D9720625955B9341D4A25003E812B776
:100F20000973722007727050527538E7C0A000E94B
:100F30000FB70973DBC14149D5E19C038302EA1174
:100F4000B709F3D224AB438392AAC339070605EB52
:100F500011A70973B228CBA14149D5E19C038302B3
:100F6000EC0BB50A33D23A30F63408ED0AB50AF381
:100F7000DA91B1A741EE0DB609B3C224CA7264ED8D
:100F80006D10EF0CA50A33A2248AC79E0601F0114A
:100F9000B70973A2504C72201B94D46B322800F115
:100FA0000EA7097334694792211155AF01F210B7AA
:100FB000097372200772705052AFC9A000F30DB7C9
:100FC0000973DBC14149BD268302F40FB709F3D28F
:100FD00024AB4383927A4D0605F50FA70973346954
:100FE000870625F59A0C0A00F60FA70973B228CBDD
:100FF000A14149BD268302F70E9709F3D235C78672
:1010000021C7D23503F81397F9B29341C9122D9134
:10101000222553B264506200F915B7097372200794
:10102000722C4CC2244CC2244CC2684802FA12B73B
:101030000973DBB13009933009933009A32109FB0F
:1010400014B709F3D224AB23611226611226611270
:10105000464312FC14A70973A22CCAA1300993308D
:1010600009933009A32109FD0FE6D932DBA1D0375E
:101070006549C5644800FE10C7D932E29621115572
:10108000755486242E03FF10D6D972A27620F44D13
:1010900059523119120000000004FFFF00003429EA
:1010A00011241FBECFEFD8E0DEBFCDBF14E0A0E01B
:1010B000B1E0E2EEFFE602C005900D92AA35B1075D
:1010C000D9F726E0AAE5B4E001C01D92A13CB20721
:1010D000E1F718E0C0E5D8E004C02197FE010E94C6
:1010E000E237CF34D107C9F70E94A92A0C94EF3711
:1010F0000C940000662329F06A3019F0862F90E0E6
:1011000008958FEF9FEF0895CF92DF92EF92FF92B5
:101110000F931F93CF93DF93EC01842F8770E1E04F
:10112000F0E0082E01C0EE0F0A94EAF73E2F7E0190
:1011300099E7E90EF11CD7019C9110E0923018F468
:101140001E2F913029F150E0487FE8ADF9ADC880FD
:10115000D980D60150969C91949F6001959FD00CA8
:1011600011246C0D7D2D711DDF01A60FB71F01111C
:1011700015C08C91812B83278D932150D1F7DF915E
:10118000CF911F910F91FF90EF90DF90CF90089536
:1011900030E0D9CF110F330F222389F39C91912B8B
:1011A00093279C938F5F877021508111F3CF9CAD63
:1011B000A90FB11DF7019081923028F4913009F008
:1011C00031E011E0E9CF31E0E7CF80E0089580E041
:1011D00008954F925F926F927F928F929F92AF92FB
:1011E000BF92CF92DF92EF92FF920F931F93CF9314
:1011F000DF9300D000D0CDB7DEB74B015C012901F1
:101200003A016701780120E030E0A9010E94F03541
:1012100087FDA6C020E030E0A901C301B2010E9411
:10122000F03587FD9DC020E030E0A901C801B6017E
:101230000E94F03587FD94C081E020919F06309197
:10124000A0062130310509F080E08093C00680922D
:10125000850690928606A0928706B09288064092F4
:10126000890650928A0660928B0670928C06C09214
:101270008D06D0928E06E0928F06F09290066091D5
:10128000B3067091B4068091B5069091B6060E949F
:101290009D3620E030E04AE754E40E94F53569834A
:1012A0007A838B839C838092910690929206A0927F
:1012B0009306B09294069B01AC01C301B2010E9457
:1012C00054372B013C01409295065092960660924D
:1012D00097067092980629813A814B815C81C701FB
:1012E000B6010E94F5356B017C01C0929906D0923F
:1012F0009A06E0929B06F0929C0680919D06909142
:101300009E06019769F5A501940160E070E0CB01AC
:101310000E948335609391067093920680939306A2
:1013200090939406A301920160E070E0CB010E94CB
:1013300083356093950670939606809397069093F5
:101340009806A701960160E070E0CB010E9483350A
:101350006093990670939A0680939B0690939C06DF
:101360000F900F900F900F90DF91CF911F910F91E1
:10137000FF90EF90DF90CF90BF90AF909F908F90B5
:101380007F906F905F904F9008958B589F4FFC0116
:1013900080818F5F08959A01ACEDB5E05696ED918E
:1013A000FC915797AB01682F58968D919C910994A9
:1013B000AB01ACEDB5E05496ED91FC91559721E071
:1013C00030E0682F58968D919C9109941F93CF938C
:1013D000DF931F92CDB7DEB7182F41E050E0BE017A
:1013E0006F5F7F4F8EE20E94CB0961157105810509
:1013F000910569F41295110F107E89818F71812BEF
:101400008983BE016F5F7F4F8EE20E94D8090F90E3
:10141000DF91CF911F9108950F931F93CF93DF9387
:1014200000D0CDB7DEB78C0141E050E0BE016E5F69
:101430007F4F80E20E94CB096115710581059105FE
:10144000B9F5C80196958795969587958370982FDD
:10145000990F990F8A81807F892B902F9370892B08
:101460008A83BE016E5F7F4F80E20E94D8096115BA
:10147000710581059105E1F441E050E0BE016F5F27
:101480007F4F85E20E94CB096115710581059105A9
:1014900079F484E0169507958A95E1F7898100FB38
:1014A00082F98983BE016F5F7F4F85E20E94D80970
:1014B0000F900F90DF91CF911F910F9108951F937F
:1014C000CF93DF9300D0CDB7DEB7182F41E050E0C7
:1014D000BE016E5F7F4F80E20E94CB0961157105EE
:1014E0008105910539F51295107F8A818F70812BC6
:1014F0008A83BE016E5F7F4F80E20E94D80961152A
:10150000710581059105B1F441E050E0BE016F5FC6
:101510007F4F82E20E94CB0961157105810591051B
:1015200049F489818C7F8983BE016F5F7F4F82E29E
:101530000E94D8090F900F90DF91CF911F910895CD
:10154000EF92FF920F931F93CF93DF9300D0CDB70D
:10155000DEB78C0141E050E0BE016E5F7F4F80E25C
:101560000E94CB09611571058105910509F055C0EF
:1015700041E050E0BE016F5F7F4F85E20E94CB09E2
:10158000298122FBEE24E0F8F12C24E0EE0CFF1C74
:101590002A95E1F72A81E22FE695E695E37034E09B
:1015A000E39FF0011124EE0EFF1EE22FE370EE0D1B
:1015B000FF2DF11DEC31F10508F05FC0EE51F54F44
:1015C0000C94E2370A0B070B040BFE0A3D0B3D0B94
:1015D0003D0B3D0B1F0B1C0B190B160B3D0B3D0B55
:1015E0003D0B3D0B2E0B2B0B280B250B220B3D0B24
:1015F0003D0B3D0B3A0B370B340B310B23E030E046
:10160000F8013183208309C022E030E0F9CF21E0E6
:1016100030E0F6CFF801118210820F900F90DF9129
:10162000CF911F910F91FF90EF9008952BE030E044
:10163000E7CF2AE030E0E4CF29E030E0E1CF28E056
:1016400030E0DECF24E130E0DBCF23E130E0D8CF63
:1016500022E130E0D5CF21E130E0D2CF20E130E00F
:10166000CFCF2BE130E0CCCF2AE130E0C9CF29E168
:1016700030E0C6CF28E130E0C3CF24E030E0C0CF77
:101680004F925F926F927F928F929F92AF92BF9292
:10169000CF92DF92EF92FF920F931F93CF93DF933E
:1016A000CDB7DEB728970FB6F894DEBF0FBECDBF1B
:1016B0004C01CE0107960E94A00A672B682B692B6C
:1016C000C9F081E090E028960FB6F894DEBF0FBE17
:1016D000CDBFDF91CF911F910F91FF90EF90DF90E1
:1016E000CF90BF90AF909F908F907F906F905F90C2
:1016F0004F90089546E050E0BE016F5F7F4F88E253
:101700000E94CB09672B682B692BD9F6EF81F885EE
:10171000EC31F105B0F6E157F44F0C94E237AB0B26
:101720001E0C1E0C1E0C1E0C610B610B610BAB0B17
:101730001E0C1E0C1E0C610B610B610B610BAB0BC5
:101740001E0C1E0C1E0C1E0C610B610B610BAB0BF7
:101750001E0C1E0C1E0CC980DA80D7FE03C08FE061
:10176000C80ED11C24E0D594C7942A95E1F7EB80EC
:10177000FC80F7FE03C0EFE0EE0EF11C94E0F59460
:10178000E7949A95E1F70D811E8117FF02C0015F72
:101790001F4F84E0159507958A95E1F741E050E0E9
:1017A000BE016F5F7F4F85E20E94CB0929812295A0
:1017B0002370F2E0AF2EB12C223061F0E3E0AE2EC8
:1017C000B12C233038F4AA24A394B12C213011F089
:1017D000B12CA12C672B682B692B09F072CFCE019D
:1017E00001960E94A00A672B682B692B09F069CF2C
:1017F000E981FA81EC31F10508F063CFEE5FF34F38
:101800000C94E2373F0C990C990C990C990C610BD4
:10181000610B610B3F0C990C990C990C610B610BDE
:10182000610B610B3F0C990C990C990C990C610B95
:10183000610B610B3F0C990C990C990CC980DA80F3
:10184000D7FE03C0F3E0CF0ED11CD594C794D59436
:10185000C794EB80FC80F7FE03C083E0E80EF11C28
:10186000F594E794F594E7940D811E8117FF02C06B
:101870000D5F1F4F15950795159507958FCF83E23F
:10188000482E8BED582E89E7682E80E4782EE2E012
:10189000AE16B104C1F093E2492E9BED592E99EF9B
:1018A000692E90E4792EF3E0AF16B10461F0AA94AA
:1018B000AB2809F05CC053E2452E5BED552E59EF85
:1018C000652E5FE3752EB601DD0C880B990B0E9427
:1018D0009F36A30192010E9454370E946736F4019B
:1018E0006083718382839383B701FF0C880B990B0C
:1018F0000E949F36A30192010E9454370E946736CE
:10190000F4016483758386839783B801110F880B74
:10191000990B0E949F36A30192010E9454370E94A6
:101920006736F401608771878287938790E080E053
:10193000CACEE2E0AE16B104D1F0F3E0AF16B104C6
:1019400009F4B9CF23E2422E2BED522E29E7622E65
:101950002EE3722EAA94AB2809F0B5CF33E2432EC2
:101960003BED532E39EF632E3EE3732EACCF43E2B3
:10197000442E4BED542E49E7642E4FE3742EA3CF33
:101980009B01DC011896ED91FC9141E067E109941F
:1019900008950895833081F028F4813099F08230E1
:1019A000A9F008958730A9F08830C9F08430B1F4E7
:1019B000809180008F7D03C0809180008F7780931D
:1019C0008000089584B58F7784BD089584B58F7D98
:1019D000FBCF8091B0008F778093B0000895809105
:1019E000B0008F7DF9CFCF93DF93282F30E0F9013E
:1019F000E559FE4F8491F901E054FF4FD491F9016C
:101A0000E455FF4FC491CC23A1F081110E94CA0C70
:101A1000EC2FF0E0EE0FFF1FEE55FF4FA591B491B4
:101A2000EC91ED2381E090E009F480E0DF91CF912B
:101A3000089580E090E0FACF1F93CF93DF93282F93
:101A400030E0F901E559FE4F8491F901E054FF4F70
:101A5000D491F901E455FF4FC491CC23A9F0162F7E
:101A600081110E94CA0CEC2FF0E0EE0FFF1FE85628
:101A7000FF4FA591B4918FB7F894EC91111108C064
:101A8000D095DE23DC938FBFDF91CF911F91089516
:101A9000DE2BF8CFCF93DF9390E0FC01E054FF4FB3
:101AA000249184559F4FFC0184918823C9F090E0D4
:101AB000880F991FFC01E257FF4FA591B491FC01DB
:101AC000E856FF4FC591D49161110DC09FB7F894AE
:101AD0008C91209582238C938881282328839FBF13
:101AE000DF91CF910895623051F49FB7F8943C9103
:101AF000822F809583238C93E8812E2BEFCF8FB795
:101B0000F894EC912E2B2C938FBFEACFCF93DF93D9
:101B1000EC0161E089E00E944A0D209731F460E019
:101B200089E0DF91CF910C941C0DCF3FD10511F4CA
:101B300061E0F6CFE4E7F1E0E491E33029F140F42D
:101B4000E130B1F0E230D9F0C038D1058CF7E7CF01
:101B5000E73021F1E83051F1E430B1F780918000B5
:101B6000806280938000D0938B00C0938A0004C071
:101B700084B5806884BDC7BDDF91CF91089584B5D9
:101B8000806284BDC8BDF8CF80918000806880935A
:101B90008000D0938900C0938800EECF8091B00080
:101BA00080688093B000C093B300E6CF8091B0000E
:101BB00080628093B000C093B400DECF3FB7F8944A
:101BC0008091EB049091EC04A091ED04B091EE04AF
:101BD00026B5A89B05C02F3F19F00196A11DB11D88
:101BE0003FBFBA2FA92F982F8827BC01CD01620FC4
:101BF000711D811D911D42E0660F771F881F991F7F
:101C00004A95D1F708958F929F92AF92BF92CF924B
:101C1000DF92EF92FF926B017C010E94DE0D4B017F
:101C20005C01C114D104E104F104B9F00E94DE0D9D
:101C3000681979098A099B09683E734081059105F5
:101C400080F321E0C21AD108E108F10888EE880E7D
:101C500083E0981EA11CB11CE4CFFF90EF90DF90B1
:101C6000CF90BF90AF909F908F9008950F931F9348
:101C7000CF93DF938C01C62F642FCC32E8F4CA32A5
:101C800008F041C0C83271F1C93209F442C080E0A5
:101C9000C034D0F1CF73F801EC0FF11D868D8F3F6A
:101CA00091F1C031E0F00E94F30C21E0892B09F49E
:101CB00020E0F801218F27C0CD3289F140F384EB79
:101CC0008C0F823020F7CF73C00FD12FD11D8E8D96
:101CD000411133C061E00E944A0D60E08E8D0E9488
:101CE0001C0D11C0025E1F4FD0E0F80181918F01E1
:101CF0008F3F31F061E0D03108F062E00E944A0D80
:101D0000DF5FD63191F781E0DF91CF911F910F9185
:101D1000089570E090E080E00E94030EF4CF85E02B
:101D200090E0433010F082E090E0880F991F880F18
:101D3000991F05970197F1F7E6CF62E00E944A0DDF
:101D4000E2CF2FB7F8946091E7047091E804809196
:101D5000E9049091EA042FBF08952091A304260F6F
:101D60003327331F21323105ECF420916605FC0145
:101D700090E080E0243069F082E00895A091A3040F
:101D80002191AC014D575B4FA40FB52FB11D2C9382
:101D90000196861798F38091A304680F6093A304BB
:101DA00080E0089581E008951092660581E08093B7
:101DB00065051092400561E082E10E941C0D61E022
:101DC00083E10E941C0DE9EBF0E080818E7F80832F
:101DD00080818D7F808388E48093B80085E4809340
:101DE000BC000895CF93DF9391E090938204882301
:101DF000B9F0C091B800D091BA008091BC008A7B44
:101E00008093BC0060E082E10E941C0D60E083E1F1
:101E10000E941C0D0E94D40ED093BA00C093B8004B
:101E2000DF91CF9108958F929F92AF92BF92CF9200
:101E3000DF92EF92FF920F931F93CF93DF93D09196
:101E40008F05D13208F0D7C0182FC0918E050E949F
:101E5000DE0D6B017C018091660581116BC082E013
:101E600080936605109365058FEF8093640510924B
:101E70006305D0936205AEE6B5E0E2E4F5E080E00C
:101E8000D81391C01092410580914105CC0FC82B09
:101E9000C093410580914005813009F088C01092BF
:101EA00040050E94DE0D6B017C018091410580930D
:101EB000BB008091680590916905A0916A05B09179
:101EC0006B05892B8A2B8B2BA1F00E94DE0D0091D4
:101ED00068051091690520916A0530916B056C19B0
:101EE0007D098E099F09061717072807390708F487
:101EF00042C08091BC0083FDD8CF85EC8093BC00AC
:101F00000E94DE0D6B017C0180916605823009F430
:101F100050C0809164058F3F09F46FC080916405C3
:101F2000803209F46CC080916405803309F469C083
:101F300084E026C08091680590916905A0916A05AA
:101F4000B0916B05892B8A2B8B2B09F484CF0E94CF
:101F5000DE0D8090680590906905A0906A05B090AC
:101F60006B056C197D098E099F0986169706A806D0
:101F7000B90608F070CF809167050E94F20E85E0E7
:101F800010926D0510928F0510926C05DF91CF9124
:101F90001F910F91FF90EF90DF90CF90BF90AF9087
:101FA0009F908F9008959D9191938F5F69CF85EE5B
:101FB000A5CF8091680590916905A0916A05B091BF
:101FC0006B05892B8A2B8B2B09F49ECF0E94DE0D8B
:101FD000009168051091690520916A0530916B05A3
:101FE0006C197D098E099F090617170728073907FD
:101FF00008F08ACFC0CF81E0C3CF80E0C1CF82E0BC
:10200000BFCF83E0BDCF0895E091F4048091F30445
:10201000E81730F4F0E0EA53FB4F808190E0089538
:102020008FEF9FEF08959091F4048091F3042FEFC8
:102030003FEF981748F4E92FF0E0EA53FB4F208177
:1020400030E09F5F9093F404C90108958091F304F8
:102050009091F404891B990B0895CF92DF92EF922F
:10206000FF920F931F93CF93DF937C01CB018A01E3
:1020700020916C05222389F0EB016B01C40ED51E63
:10208000CC15DD0569F06991D701ED91FC910190C6
:10209000F081E02DC7010995F3CF642F0E94AD0EAA
:1020A000C801DF91CF911F910F91FF90EF90DF90CA
:1020B000CF900895CF93DF931F92CDB7DEB769839A
:1020C00020916C052223F9F020918F05203258F0E1
:1020D00021E030E0FC013383228390E080E00F9028
:1020E000DF91CF91089580916D05E82FF0E0E259DE
:1020F000FA4F998190838F5F80936D0580938F0550
:1021000081E090E0ECCF61E0CE0101960E94AD0E3F
:10211000F7CFDC011A96ED91FC9130E020E00994B4
:10212000DC011696ED91FC9130E020E040E069E1A1
:102130000994DC011696ED91FC9130E020E040E03E
:1021400068E109949A01DC011696ED91FC91462F05
:1021500067E10994EF92FF920F931F93CF93DF9360
:102160001F92CDB7DEB77C018B01D8016C9167312E
:1021700029F150F46531A0F40F90DF91CF911F91B8
:102180000F91FF90EF9008956A3118F16E3FA1F71B
:10219000F8014181498369E2C7010E9489100BC09F
:1021A000F80141814983D7011696ED91FC9130E009
:1021B00020E0C70109950E5F1F4FD7CFF80181813D
:1021C0008983AE014F5F5F4F61E0C7010E94A2109B
:1021D000F2CF0F5F1F4FD7011696ED91FC9130E0C3
:1021E00020E040E0C7010995C0CF462FDC011696DC
:1021F000ED91FC9130E020E066E10994462FDC018E
:102200001696ED91FC9130E020E065E10994EF92A3
:10221000FF920F931F93CF93DF93EC01042F79016B
:102220006D3009F442C050F46B30A9F1693009F403
:102230009BC06A3009F461C080E042C06E3009F48E
:102240004EC06F3099F70E949910F7011381110F5A
:10225000110F110F6C89160F612F62956F706061FD
:10226000CE010E94FE10612F6F70CE010E94FE1001
:10227000F7016481606BCE010E94FE10F70140817E
:1022800051816281660F660F660FCE010E94A21017
:102290000150A1F72EC063E172E0442311F06EE01B
:1022A00072E0CE010E94AA100AC0411110C067E07E
:1022B00072E00E94AA10E881F98182898C8B81E00A
:1022C000DF91CF911F910F91FF90EF90089560E003
:1022D00072E00E94AA10E881F9818389EFCF0E9401
:1022E000991061E8CE010E94FE10602FCE010E947D
:1022F000F510CE010E949010E2CFEA85FB8530E018
:1023000020E040E068E2CE010995EE81FF8130E0F7
:1023100020E040E064E1CE01099541E06BE4CE01AC
:102320000E948910E881F981448169E2CE010E940E
:10233000891040E06BE4CE010E948910E881F981A8
:10234000448169E2CE010E94891041E06BE4CE0134
:102350000E948910E881F981458169E2CE010E94DD
:10236000891068E172E09DCF89E492E099838883C7
:102370001C8AA5CFDC011896ED91FC9130E020E09D
:1023800040E069E10994DC011896ED91FC9130E0A0
:1023900020E040E068E10994CF93DF931F92CDB72E
:1023A000DEB76983BE016F5F7F4F0E94C00C0F9044
:1023B000DF91CF910895EF92FF921F93CF93DF9318
:1023C000EC01162F7A010E94C31160E4CE010E9435
:1023D000CC11E885F9859701412F67E1CE01099578
:1023E000CE01DF91CF911F91FF90EF900C94BA1125
:1023F000EF92FF921F93CF93DF93EC01142F79019B
:10240000663181F138F4643109F44BC0653179F0FB
:1024100080E022C06831C9F150F16931C9F780917B
:102420008104882391F1CE010E94BA112EC08091BF
:102430008104882319F0CE010E94BA11CE010E94B6
:10244000C31160E0CE010E94CC11612FCE010E9429
:10245000CC1181E080938104DF91CF911F91FF9097
:10246000EF900895642F0E94CC1181E0F5CF809108
:102470008104882319F0CE010E94BA11A7011931F5
:1024800038F4612FCE010E94DB1110928104EDCF50
:1024900068E1CE010E94DB11185188E1E80EF11CC1
:1024A000EDCF8E898F3F11F488E78E8BE885F98513
:1024B0009701412F64E1CE01DF91CF911F91FF90F1
:1024C000EF9009940F93DC01FC01EE5BFF4F9081CC
:1024D0004095940F0F5F023019F4921B9F5F00E04C
:1024E000DE968C91DE97462F481BD496ED91FC9199
:1024F000D597692FCD0109950F910895CF93DF935B
:10250000FC01A081B18182AD982F990F990F990F8D
:1025100095AF50969C915097903208F09FE1990F9B
:10252000990F990F94AF23AD922F990F990F990F8F
:1025300096AF51963C915197682F620F7727771F7E
:102540003617170614F4832F821B97AFEF01C05C78
:10255000DF4F880F880F880F890F888356968C91DC
:102560005697229654969C919883EF5BFF4F8083F9
:10257000DF91CF9108950F93FC01EB5BFF4F30810A
:1025800031965081451730F4301738F0041728F091
:1025900080E013C03017D0F3FBCFFC01ED5BFF4FA1
:1025A00030818C5B9F4FFC018081681740F481E093
:1025B000321718F081E0261758F70F910895321757
:1025C000C8F3E6CF2F923F924F925F926F927F9225
:1025D0008F929F92AF92BF92CF92DF92EF92FF9233
:1025E0000F931F93CF93DF93EC012FAC4C0183E447
:1025F000880E911CF4012082339730805E01F4E450
:10260000AF0EB11CF50130826E01F5E4CF0ED11C86
:10261000F6011082339740807E01F6E4EF0EF11C44
:10262000F701408234961081329760803196708035
:1026300032975080012F262D472D652DCE010E9407
:10264000BB12CD58DF4F811114C01882DF91CF919A
:102650001F910F91FF90EF90DF90CF90BF90AF90C0
:102660009F908F907F906F905F904F903F902F90B2
:10267000089581E08883251410F4F40150826314D6
:1026800010F4F5016082772011F0F60170821415C4
:10269000E8F6F7011083DACF0F93DC01802FFD01FC
:1026A000ED58FF4F90819923E9F12223D9F122308F
:1026B00020F0023079F56F5F621B082F0170FD0179
:1026C00080FD32C0EB5BFF4F8081481758F1319697
:1026D0008081481738F53297908131978081260F95
:1026E0002617F0F46917D8F42FEF290F8217D0F4CA
:1026F000681708F4682F291708F4922F961BD696AE
:10270000ED91FC91D7970480F581E02D292FCD0123
:10271000099508C0033089F64F5F421BCECF682F62
:10272000691720F30F910895ED5BFF4F80816817C3
:10273000C8F3319680816817A8F732969081319757
:102740008081240F241778F4491760F42FEF290FA4
:10275000821740F7481708F4482F291708F4922FDA
:10276000941BCDCF482F4917E8F6F2CF213039F02E
:1027700020F0223031F0840F0895860F0895841BD5
:102780000895861B0895213039F020F0223031F071
:10279000861B0895840F0895860F0895841B08955D
:1027A0005F926F927F928F929F92AF92BF92CF92E1
:1027B000DF92EF92FF920F931F93CF93DF935C0111
:1027C000162F642EEC01C15BDF4FDC80ED804C01E5
:1027D00089E7880E911CFE80FD18C12EF11608F4C1
:1027E000CF2C5B800C85202F4E2D6D2D8A810E9471
:1027F000B613782E202F4E2D6D2D852D0E94C313DC
:10280000482F662071F08A85F40180832C2D672D76
:10281000C5010E944C131F1548F01F19E394D12CD9
:10282000DACF89858111F7CF8B85EECF1D0D1C8303
:10283000ED82DF91CF911F910F91FF90EF90DF908C
:10284000CF90BF90AF909F908F907F906F905F9050
:102850000895DC0118964C911897ED91FC91119711
:10286000249130E0042E02C0359527950A94E2F7B2
:10287000842F860F883068F031961196FC93EE9382
:10288000E49198E0941B01C0EE0F9A95EAF72E2B85
:10289000885018968C938FEF9FEF01C0880F6A9530
:1028A000EAF7809582230895FC01E60FF11D8491DB
:1028B00090E0982F88273196E4918E0F911D08950E
:1028C000CF93DF93209145063091460628173907AC
:1028D00009F490C0EC019093460680934506FC01F4
:1028E0008491809356063196E491E0935706FE0159
:1028F0003296E491E0935806FE013396E491E0931A
:102900005906FE013496E491E0935A06FE0135968D
:10291000E491E0935B06FE013696E491E0935C0659
:10292000FE013796E491E0935D06FE013896E4914E
:10293000E0935E06FE013996E491E0935F06FE01A6
:102940003A96E491E0936006FE013B96E491E093B1
:102950006106FE013C96E491E0936206FE013D961D
:10296000E491E0936306FE013E96E491E0936406F1
:10297000FE013F96E491E0936506FE017096E491B6
:10298000E093660661E1CE010E94541490936806BC
:102990008093670663E1CE010E94541490936A0607
:1029A0008093690665E1CE010E94541490936C06F1
:1029B00080936B068091450690914606892BD1F055
:1029C0008091630680936F06409164064093700681
:1029D00090916E06992371F0913079F4909165068B
:1029E000891714F490936F0680916606841714F487
:1029F00080937006DF91CF91089530916006209109
:102A00006206082E000C990B622F022E000C770B29
:102A1000630F711D37FD7A95861797071CF4320FE7
:102A200030936F06241734F720937006E3CF6F922C
:102A30007F928F929F92AF92BF92CF92DF92EF924E
:102A4000FF920F931F93CF93DF93EC01062F142F68
:102A50007901FC01E55AFF4F8081813009F445C0BE
:102A6000D0F1823009F44BC0833009F452C0FE012A
:102A7000EF5AFF4F00833196108337978081918101
:102A800047962FEFE216F10411F008F0E6C0E1E6F8
:102A9000EE16F10408F447C0FE01E159FF4F208112
:102AA0003181820F931F9C012F5F3F4FF9014491A9
:102AB000411142C0712C872DDF91CF911F910F9151
:102AC000FF90EF90DF90CF90BF90AF909F908F904E
:102AD0007F906F900895FE01E35BFF4F0190F081BE
:102AE000E02DCE010995180FC2CFFE01E35BFF4F29
:102AF0000190F081E02DCE010995081BB8CFFE01B1
:102B0000E35BFF4F0190F081E02DCE010995181B8A
:102B1000AECFFE01E35BFF4F0190F081E02DCE01CF
:102B20000995080FA4CFF1E4EF16F10408F4BBCF28
:102B3000FE01E359FF4FB3CFFC0144914E151F0432
:102B400009F086C00296009709F4B4CF7E01FFE435
:102B5000EF0EF11CF70191838083108671966081DE
:102B6000C7010E942914F701868372966081C7010C
:102B70000E942914A82EF70187836E01F9E7CF0E72
:102B8000D11CF6019081F701928781E0911180E0DC
:102B9000F7018387FE01EE59FF4FB0806B2DC7010F
:102BA0000E942914882EFE01ED59FF4F1081612FDC
:102BB000C7010E942914982EFE01EC59FF4F008195
:102BC000602FC7010E942914015041E050E09A0192
:102BD00001C0220F0A95EAF7782E721AF7010681D2
:102BE00010160CF068CFBA94CA0101C0880FBA94CD
:102BF000EAF7881AB4849A0C115001C0440F1A9550
:102C0000EAF7F42FF9199F2E2B2D4F2F682DF7017E
:102C100082810E94B613182FF70182832B2D492D34
:102C2000682D83810E94C313F7018383F1E0BF16EF
:102C300009F47CC0BF1608F43FC022E0B21609F4C4
:102C40007BC093E0B91609F482C0082F212F38C049
:102C5000F9012491820F911D26CFFE01EF58FF4FFD
:102C600000811181080F191F680160E0C6010E94F0
:102C70005414080F191F62E0C6010E945414F4E0B6
:102C8000CF0ED11C8E159F0580F3F801849190E042
:102C9000982F88273196E4918E2B009709F40ACF5C
:102CA000E816F90619F4C80103964DCFF8013296DB
:102CB000E4910E0F111DE9CF202F210F082F0A0DCF
:102CC000482F612FCE010E94BB12882309F4F3CE56
:102CD000F701148215828E01025A1F4F4E01FFE543
:102CE0008F0E911CF8016081C7010E942914682E83
:102CF000F4016081C7010E942914B82E40E0662DBE
:102D0000CE010E94D01341E06B2DCE010E94D01362
:102D100061E0C7010E9429148111F0CFF70185817C
:102D20008A1504F38285F6018083C5CEBA1821E0A6
:102D3000210F080F1B0DC4CF91E0392F301B21E06C
:102D4000210F9A1901E0080F890F130FB9CF212F16
:102D50002A0D982F901B01E0080F81E0890FB0CF5A
:102D6000FF920F931F93CF93DF93C82FD62F10920C
:102D700012068A01F12CF80161918F01E091FC05A6
:102D8000F091FD058AEF95E009958F3F9807F1F0E6
:102D90008E3F2FEF920779F39C014D2F6C2F8AEF16
:102DA00095E00E94171590915506913049F030F04A
:102DB000923041F0933041F0F80EDDCFC80FFCCFD8
:102DC000D80FFACFC81BF8CFD81BF6CF8F2DDF91C5
:102DD000CF911F910F91FF9008952AE738E030932B
:102DE000FD052093FC050C94B016CF93DF93EC0106
:102DF0006BAFEEA9FFA90190F081E02D0995EEA936
:102E0000FFA90280F381E02DCE01DF91CF910994DB
:102E1000AF92BF92CF92DF92EF92FF920F931F93E8
:102E2000CF93DF9300D000D01F92CDB7DEB78C01D7
:102E3000DC01DA96AC90DA97DB96EC90DB97ED91BB
:102E4000FC91B188FE2CD12CC12CD801ED91FC91C4
:102E500011978089D8962D913C911C82FD828B839D
:102E6000B8E08B9FC00111248C9DA0018D9D500D59
:102E70009C9D500D1124240F351F3A832983D801BE
:102E80001496ED91FC919E012F5F3F4F41E06FE062
:102E9000C8010995F3948F2D8E198A1528F4BFEF78
:102EA000CB1ADB0AFB1488F20F900F900F900F9053
:102EB0000F90DF91CF911F910F91FF90EF90DF90D6
:102EC000CF90BF90AF9008958FB7F8948091800411
:102ED0008FBF0895CF93DF93EC01962F683109F4EB
:102EE00045C0B901993130F4943199F0973159F0D6
:102EF00080E006C0993109F45BC09032C9F781E0E7
:102F0000DF91CF91089550E080ED95E00E942D1063
:102F1000F6CF8C859D85AE85BF85892B8A2B8B2B23
:102F200071F4E881F981A585B0E020EA36E841E056
:102F300050E00E9447356C877D878E879F8710926F
:102F4000F4041092F30410926D0510928F050E9404
:102F5000D40E88EC9CE09093F0048093EF0489EC0D
:102F60009CE09093F2048093F104C9CF2C853D85B9
:102F70004E855F8560E074E284EF90E00E945235F8
:102F800020513109410951095695479537952795A3
:102F90002093B8008E8990E09595879591E0909365
:102FA0006C0580938E0510926D0510928F05A7CF4A
:102FB00081E00E94130FA3CF8EBD00000DB407FE69
:102FC000FDCF8EB508958CBD9DBD089588E00E940B
:102FD000F30C892B01F58091F6048130E1F465E072
:102FE00070E080E090E00E94030E88E00E94F30C05
:102FF000892BD1F087E00E94F30C892B29F4809172
:10300000F504813009F44DC087E00E94F30C892B50
:1030100009F090C0089588E00E94F30C892B51F3C9
:1030200081E08093F604E6CF8091220590912305FC
:103030004091120550911305209116053091170506
:10304000841B950B821793073CF180912205909188
:1030500023054091120550911305209114053091DC
:103060001505841B950B281739078CF080912205D4
:10307000909123052091120530911305821B930B2B
:1030800090932305809322051092F604B3CF80918C
:10309000140590911505F4CF8091160590911705B0
:1030A000EFCF65E070E080E090E00E94030E87E0E3
:1030B0000E94F30C892B09F040C080912205909169
:1030C000230540911205509113052091160530916A
:1030D0001705840F951F821793073CF180912205F5
:1030E00090912305409112055091130520911405EC
:1030F00030911505840F951F281739078CF08091A2
:103100002205909123052091120530911305820F1D
:10311000931F90932305809322051092F504089540
:103120008091140590911505F4CF8091160590912A
:103130001705EFCF81E08093F5040895CF92DF92D9
:10314000EF92FF920F931F93CF93DF93EC019C01BB
:10315000205C3F4F8C0160E070E0CB01F801C19032
:10316000D1908F010D2C000CEE08FF086C0D7D1D19
:103170008E1D9F1D2E173F0789F720E230E040E0AB
:1031800050E00E94283580E090E0DC01499159919F
:10319000421B530B449F6001459FD00CD00C11245F
:1031A0000D2C000CEE08FF088C0D9D1DAE1DBF1DE3
:1031B0000C171D0759F7BC01CD0125E095958795A2
:1031C000779567952A95D1F7DF91CF911F910F9150
:1031D000FF90EF90DF90CF90089580917A00806902
:1031E00080937A008EE480937C0061E070E080E060
:1031F00090E00E94030E83B7817F826083BF80E1ED
:1032000030E020E093B7916093BF889593B79E7F9D
:1032100093BF90917A0096FDFCCF40917800509139
:103220007900240F351F815069F780917A008F77DC
:1032300080937A0084E0369527958A95E1F750E0EF
:1032400040E064EB7BE281E190E00E942835C90117
:1032500008950F931F93CF93DF9300D0CDB7DEB7C0
:1032600041E050E0BE016F5F7F4F8DE00E94CB09CF
:1032700041E050E0BE016E5F7F4F8EE00E94CB09BF
:103280006A8170E090E080E024E0660F771F881F7D
:10329000991F2A95D1F7098110E034E0159507951B
:1032A0003A95E1F7012E000C220B330B602B712BAA
:1032B000822B932B0E949D3620E030E040E85DE3B6
:1032C0000E94543720E030E048EC51E40E948435FD
:1032D0000F900F90DF91CF911F910F9108958091E2
:1032E0007A00806980937A0088EC80937C0064E1A6
:1032F00070E080E090E00E94030E83B7817F8260DF
:1033000083BF80E270E060E093B7916093BF8895DF
:1033100093B79E7F93BF90917A0096FDFCCF20914A
:10332000780030917900620F731F815069F78091A6
:103330007A008F7780937A00769567957695679572
:1033400062527A4090E080E00E949D3626EF38E29B
:103350004CE151E40E94F535089590917A0090690E
:1033600090937A008E50806480937C0083B7817F35
:10337000826083BF20E290E080E033B7316033BFEA
:10338000889533B73E7F33BF30917A0036FDFCCF4E
:103390004091780050917900840F951F215069F772
:1033A00020917A002F7720937A0025E096958795D3
:1033B0002A95E1F708958FE00E94AD19A0911005BC
:1033C000B09111059C010E9474350E949F3628E53A
:1033D00039E743E353E40E94F5350E946E36CB0192
:1033E00008950F931F93CF938091DB01882399F069
:1033F000CFEF0FEE11E061E085E00E941C0DC801E7
:103400000197F1F760E085E00E941C0DC80101976B
:10341000F1F7C15081F7CF911F910F9108953F921D
:103420004F925F926F927F928F929F92AF92BF92D4
:10343000CF92DF92EF92FF920F931F93CF93DF9380
:10344000CDB7DEB72E970FB6F894DEBF0FBECDBF57
:1034500080913D05882309F4ABC110927906109242
:103460007A0610927B0610927C06809079069090E6
:103470007A06A0907B06B0907C06C0902B05D09079
:103480002C05E0902D05F0902E05A7019601C501B1
:10349000B4010E9483352B013C0120E030E0A901FA
:1034A0000E944F3718160CF0A6C1C301B2010E944A
:1034B0006E3680911805882309F4BEC1C09281063A
:1034C000D0928206E0928306F0928406E12CF12CE1
:1034D00000EA10E420E030E040E450E46E31710591
:1034E00040F0E12CF12C00E81FE320E030E040E068
:1034F0005FE360E070E080E391E40E94E90880917E
:10350000BF06882309F42AC10E94A10E6D837E8321
:103510008F8398878091A7069091A806A091A9060D
:10352000B091AA064D815E816F817885481B590B49
:103530006A0B7B0B8091B3069091B406A091B506FF
:10354000B091B606481759076A077B0708F406C109
:10355000E091A106F091A20680819181A281B381C0
:1035600089839A83AB83BC83E091A506F091A6067C
:103570009C01AD0160817181828193810E948335BC
:103580004B015C012091AF063091B0064091B1062D
:103590005091B20669817A818B819C810E9483352A
:1035A0006B017C012091950630919606409197061B
:1035B00050919806C501B4010E9454372091AB0682
:1035C0003091AC064091AD065091AE060E94843514
:1035D0002B013C014092AB065092AC066092AD06C6
:1035E0007092AE063090C00631101AC0209191063C
:1035F000309192064091930650919406C701B6010E
:103600000E9454379B01AC01C301B2010E94833573
:103610006093AB067093AC068093AD069093AE06B4
:103620004090AB065090AC066090AD067090AE0630
:103630001091BB069091BC069E87A091BD06AD87F8
:103640000091BE06212F392F4A2F502FC301B201FE
:103650000E944F3718160CF0D2C0812F9E85AD8581
:10366000B02F8093AB069093AC06A093AD06B093B9
:10367000AE06332009F4DCC0209191063091920609
:103680004091930650919406C501B4010E945437AD
:103690004B015C012091990630919A0640919B065E
:1036A00050919C06C701B6010E9454379B01AC01A2
:1036B0006091AB067091AC068091AD069091AE061C
:1036C0000E948335A50194010E9484356B017C0121
:1036D0009B01AC01612F7E858D85902F0E94F03576
:1036E00087FD18C01091B7069091B8069E87A091EB
:1036F000B906AD870091BA06212F392F4A2F502FD6
:10370000B601C7010E94F03587FD04C01C2DDE867E
:10371000ED860F2DE091A306F091A406812F9E85E2
:10372000AD85B02F80839183A283B38389819A81F1
:10373000AB81BC818093AF069093B006A093B10695
:10374000B093B2068D819E81AF81B8858093A70624
:103750009093A806A093A906B093AA0620917D068F
:1037600030917E0640917F065091800660E070E0C7
:103770008FE793E40E9483350E946736CB012E9633
:103780000FB6F894DEBF0FBECDBFDF91CF911F9172
:103790000F91FF90EF90DF90CF90BF90AF909F90F0
:1037A0008F907F906F905F904F903F900C94860D1C
:1037B00080913C056091A6017091A70181110EC016
:1037C0008091290590912A0520913B05BC01222377
:1037D00029F06091A101680F792F711D90E080E0C0
:1037E0000E949D366093790670937A0680937B06DB
:1037F00090937C063ACEC301B201905858CE809186
:10380000B7069091B806A091B906B091BA0689871B
:103810009A87AB87BC879C01AD01C301B2010E94AE
:10382000F03587FF26CF89859A85AB85BC8519CF72
:10383000812C912C54012ECF20E030E040E05FE35A
:10384000C701B6010E9484359B01AC01C501B401DA
:103850000E944F3718164CF410927D0610927E0687
:1038600010927F061092800679CF80E090E0AFE75B
:10387000B3E480937D0690937E06A0937F06B09379
:1038800080066CCF4F925F926F927F928F929F9241
:10389000AF92BF92CF92DF92EF92FF92CF93DF93DE
:1038A0008090F7049090F804A090F904B090FA0486
:1038B000C0910F05D0E0C501B4010E9467366B01CD
:1038C0007C0120E030E048E453E4C501B4010E94EB
:1038D000F03593E0CC0FDD1F9A95E1F7C25BDE4F28
:1038E00087FF31C02881398150E040E025513109FE
:1038F00041095109C701B6010E94C63728EC30E0E2
:1039000040E050E00E942835CA01B9016B5E7F4F4C
:103910008F4F9F4F0E949F3660932B0570932C050D
:1039200080932D0590932E05DF91CF91FF90EF901E
:10393000DF90CF90BF90AF909F908F907F906F90CF
:103940005F904F9008954A805B80712C612C20E03D
:1039500030E04CE853E4C501B4010E94F03587FF24
:103960001FC088809980B12CA12CA7019601285CEA
:10397000310941095109C301B201681979098A095C
:103980009B090E94C63720E530E040E050E00E94ED
:103990002835CA01B901680D791D8A1D9B1DBACF52
:1039A0002C813D8150E040E0241935094609570932
:1039B000C701B60168517140810991090E94C6375B
:1039C00020E530E040E050E00E942835CA01B9010E
:1039D000640D751D861D971D9DCFCF92DF92EF92CE
:1039E000FF920F931F93CF93DF936C01EB017B0149
:1039F000E40EF51E10E000E0CE15DF0561F06991E0
:103A0000D601ED91FC910190F081E02DC601099560
:103A1000080F191FF1CFC801DF91CF911F910F91AE
:103A2000FF90EF90DF90CF900895CF92DF92EF92CA
:103A3000FF920F931F93CF93DF93EC016C0124E06F
:103A4000C20ED11CFC01E158FF4F0190F081E02D26
:103A5000C60109958E3FEFEF9E07C8F48E010E5701
:103A60001F4F7E01F1E8EF0EF11C9C01F80140812F
:103A7000F7016081C6010E941715C15ADF4F988176
:103A80009130A9F078F09230A1F09330B9F081E054
:103A900090E0DF91CF911F910F91FF90EF90DF9019
:103AA000CF900895F7019081890F8083F0CFF801BE
:103AB000FACFF7019081981B892FF7CFF801FACF41
:103AC0000F931F93CF93DF938C01D0E0C0E0F801F8
:103AD000EC0FFD1F6491662341F086EF95E00E9494
:103AE000151D892B11F02196F2CFCE01DF91CF91D8
:103AF0001F910F910895682F86EF95E00C94151D86
:103B0000089590E080E00895FC0101900020E9F71D
:103B10003197AF01481B590BBC0186EF95E00C941F
:103B2000ED1C8F929F92AF92BF920F931F93CF93F2
:103B3000DF93CDB7DEB7A1970FB6F894DEBF0FBE07
:103B4000CDBF19A2423008F44AE08E010F5D1F4F2D
:103B5000842E912CB12CA12CA50194010E945235E8
:103B6000E62FB901CA01EA30F4F4E05DD801EE9322
:103B70008D01232B242B252B79F790E080E01097E3
:103B800019F0CD010E94841DA1960FB6F894DEBFF6
:103B90000FBECDBFDF91CF911F910F91BF90AF901E
:103BA0009F908F900895E95CE1CFCF92DF92EF92E2
:103BB000FF92CF93DF9397FF19C06B017C018DE2D9
:103BC0000E947B1DEC0166277727CB016C197D09CC
:103BD0008E099F094AE00E94911D8C0F9D1FDF9165
:103BE000CF91FF90EF90DF90CF9008954AE0DF9162
:103BF000CF91FF90EF90DF90CF900C94911D4F925A
:103C00005F926F927F928F929F92AF92BF92CF926C
:103C1000DF92EF92FF920F931F93CF936B017C0182
:103C2000742EAC019B010E94C137882399F085E86E
:103C300092E0CF911F910F91FF90EF90DF90CF9086
:103C4000BF90AF909F908F907F906F905F904F90BC
:103C50000C94841D46015701E894B7F82FEF3FEF0D
:103C60004FE75FE7C501B4010E94C13781110DC064
:103C70002FEF3FEF4FE75FE7C501B4010E94F0353A
:103C800018161CF489E892E0D4CF2FEF3FEF4FE7EE
:103C90005FE4C701B6010E944F3718161CF48DE887
:103CA00092E0C7CF2FEF3FEF4FE75FECC701B601C0
:103CB0000E94F03587FDF3CF20E030E0A901C70175
:103CC000B6010E94F03510E000E087FF08C08DE2E9
:103CD0000E947B1D8C01F7FAF094F7F8F094C0E095
:103CE00060E070E080E09FE37C1641F020E030E08F
:103CF00040E251E40E94F535CF5FF6CFA70196016F
:103D00000E9484352B013C010E946E364B015C0100
:103D10004AE00E94911D7C01E00EF11ECC23B1F11E
:103D2000C501B4010E949D369B01AC01C301B201E3
:103D30000E9483354B015C018EE20E947B1DE80EE0
:103D4000F91EC15018F120E030E040E251E4C50115
:103D5000B4010E9454372B013C010E946E364B0186
:103D6000B12CA12C4AE0C501B4010E94911DE80EBE
:103D7000F91EC501B4010E949D369B01AC01C3012F
:103D8000B2010E9483354B015C01DBCFC701CF91AB
:103D90001F910F91FF90EF90DF90CF90BF90AF9069
:103DA0009F908F907F906F905F904F9008950F93AA
:103DB0001F93FC0100E012E12AE730E090E0401799
:103DC00051076207730740F43695279517950795B5
:103DD0009F5F9630A1F797E0292F286B26952083C7
:103DE0009095917091831F910F9108954F925F92DA
:103DF0006F927F92AF92BF92CF92DF92EF92FF923B
:103E00000F931F93CF93DF9300D0CDB7DEB78C0114
:103E1000F62E5A016901DC0112968D919C9113973F
:103E2000892BF1F117964D915D916D917C911A97C7
:103E3000CE0101960E94D71E89819A810E94E317C4
:103E400060E0F80185810E941C0D8F2D80680E9422
:103E5000DC177501CA0CDB1CEC14FD0439F080E0A2
:103E60000E94DC17D7018D937D01F6CF61E0F80148
:103E700085810E941C0D60E070E090E080E00F9072
:103E80000F90DF91CF911F910F91FF90EF90DF90F6
:103E9000CF90BF90AF907F906F905F904F900895BC
:103EA0008D919C91119761E0009731F314962C91BC
:103EB000269531E030936C0520938E0510926D05A8
:103EC00010928F05DC01ED91FC910190F081E02DC5
:103ED0006F2D099580E00E94130FF801F4800E9475
:103EE000DE0D2B013C018091660581116BC0F0E273
:103EF000FC1510F480E2C82E81E080936605809363
:103F000065059FEF90936405109263059C0D909357
:103F100062058093410580914105E894F0F8F82A04
:103F2000F092410580914005813009F091C01092D6
:103F300040050E94DE0D2B013C01809141058093DC
:103F4000BB008091680590916905A0916A05B091C8
:103F50006B05892B8A2B8B2BA1F00E94DE0D209103
:103F600068053091690540916A0550916B056419A7
:103F7000750986099709261737074807590708F46E
:103F800042C08091BC0083FDD8CF85EC8093BC00FB
:103F90000E94DE0D2B013C0180916605813009F401
:103FA00059C0809163058C1510F4C0906305A2E49C
:103FB000B5E0E6ECF4E080E08C1551F19D91919331
:103FC0008F5FFACF8091680590916905A0916A058D
:103FD000B0916B05892B8A2B8B2B09F484CF0E941F
:103FE000DE0D209168053091690540916A05509178
:103FF0006B0564197509860997092617370748075D
:10400000590708F070CF809167050E94F20EC12C0D
:104010001092F404C092F3047501D8018D919C9123
:10402000DC01ED91FC910084F185E02D0995892B4F
:1040300009F421CFF80180819181DC01ED91FC919F
:104040000284F385E02D0995F70181937F01E5CF87
:1040500085EE9CCF8091680590916905A0916A05D5
:10406000B0916B05892B8A2B8B2B09F495CF0E947D
:10407000DE0D209168053091690540916A055091E7
:104080006B056419750986099709261737074807CC
:10409000590708F081CFB7CFAF92BF92CF92DF928E
:1040A000EF92FF920F931F93CF93DF9300D0CDB782
:1040B000DEB78C01F62E5A016901DC0112968D9152
:1040C0009C911397892BC1F117964D915D916D913C
:1040D0007C911A97CE0101960E94D71E89819A8100
:1040E0000E94E31760E0F80185810E941C0D8F2D6E
:1040F0000E94DC177501CA0CDB1CEC14FD0431F0C6
:10410000D7018D917D010E94DC17F7CF61E0F801A6
:1041100085810E941C0D60E070E090E080E00F90CF
:104120000F90DF91CF911F910F91FF90EF90DF9053
:10413000CF90BF90AF9008958D919C91119761E0C1
:10414000009751F314962C91269531E030936C052D
:1041500020938E0510926D0510928F05DC01ED9174
:10416000FC910190F081E02D6F2D09957501CA0C2D
:10417000DB1CCE14DF0471F0F80180819181D7013E
:104180006D917D01DC01ED91FC910190F081E02DBC
:104190000995EFCF81E00E94130FBDCF85ED80938D
:1041A000BC008091680590916905A0916A05B09165
:1041B0006B050796A11DB11D23E0B695A7959795B0
:1041C00087952A95D1F72091BC0024FD03C0109259
:1041D00066050895409168055091690560916A05EA
:1041E00070916B05452B462B472B69F30097A10572
:1041F000B10541F025E32A95F1F700000197A109E7
:10420000B109E1CF809167050C94F20EFC01A08109
:10421000B18150962C9182AD38E0839FC00111246A
:10422000289FA001299F500D112470E060E080AD0F
:1042300091AD0C94E8371F93CF93DF93EC010E946C
:1042400008171BAD8AAD180FE881F981818918170D
:1042500068F0EC81FD8130E020E040E060E1CE01DB
:10426000099580E0DF91CF911F910895FE01E658F6
:10427000FF4F8081882319F0CE010E940621612F13
:10428000CE010E94F51681E0EDCFCF93DF93EC01D4
:10429000FC01E658FF4F8081882319F0CE010E946F
:1042A000062160E0CE01DF91CF910C94F516CF92FC
:1042B000DF92EF92FF920F931F93CF93DF93D82E4D
:1042C000C92E86E00E94F30CC1E0892B09F0C0E002
:1042D0008AEF95E00E94452185ECE82E89E0F82ED2
:1042E0008DE396E00E946014F0924806E092470643
:1042F0000D2D1C2DD0E0F801419151918F016D2FB2
:1043000080E00E94ED16D05FD038A9F78AEF95E0E3
:104310000E941B218111E4CFCC2369F086E00E942A
:10432000F30CC1E0892B39F06AE070E080E090E0A6
:104330000E94030EC0E086E00E94F30C892B61F717
:10434000C111ECCFDF91CF911F910F91FF90EF90B2
:10435000DF90CF900C94F1192F923F924F925F9281
:104360006F927F928F929F92AF92BF92CF92DF9285
:10437000EF92FF920F931F93CF93DF9300D01F9282
:10438000CDB7DEB7412C1B821A820FE110E030E678
:10439000E32EF12CCC24C394D12C50E2252E6FE5D2
:1043A000862E912C8A81898386E00E94F30C332427
:1043B0003394892B09F0312C1093170500931605BF
:1043C000F0921505E0921405D0921305C0921205E3
:1043D00081E490E0909323058093220525ECA22EA2
:1043E00029E0B22E0E94E6178091220590912305C4
:1043F000582E9FE159124FC01093170500931605D0
:10440000F0921505E0921405D0921305C0921205A2
:1044100090922305809222059FE5592E8AEF95E020
:104420000E9445218DE396E00E946014B0924806F8
:10443000A09247066FE770E08BEF94E00E940B3587
:104440004BEF54E060E080E00E94ED16409277066A
:1044500090E3909378068EE50E947B1D109277067C
:1044600020927806712C612CE9816E1660F580919E
:104470000F05F30196E0989FE00DF11D1124E05F18
:10448000FE4F80810E947B1DEFEF6E1A7E0AECCFFB
:1044900033243394A7CFE0E65E12C0CF1093170504
:1044A00000931605F0921505E0921405D0921305BD
:1044B000C092120580E290E090932305809322053C
:1044C00080E2582EABCF4092770620927806852D59
:1044D0000E947B1D8AEF95E00E941B218111A2CFD3
:1044E000332071F086E00E94F30C33243394892B3F
:1044F00039F06AE070E080E090E00E94030E312C19
:1045000086E00E94F30C892B09F06CCF3110C0CFEC
:10451000A0900F05F6E0FA9D50011124C501805FBF
:104520009E4F5C01EA81FB81E80FF91F50820E94D7
:10453000F1196AE070E080E090E00E94030EEA81E9
:10454000FB813196FB83EA83F9E04F0E8DE248123E
:1045500029CFF50115820F900F900F90DF91CF9129
:104560001F910F91FF90EF90DF90CF90BF90AF9091
:104570009F908F907F906F905F904F903F902F9083
:1045800008955F926F927F928F929F92AF92BF92A7
:10459000CF92DF92EF92FF920F931F93CF93DF930F
:1045A00090900F05AA24A394911001C0A12C892DED
:1045B00090E020918E012150330B1092170510923C
:1045C0001605309315052093140521E030E0309353
:1045D000130520931205909323058093220586E00E
:1045E0000E94F30CDD24D394892B09F0D12C05EC27
:1045F00019E036E0B32E0E94E617C0912205D09153
:104600002305CC2E7E01FF24C7018A0D911DA7FC36
:104610009A9589199109A12C97FD06C083309105BF
:1046200014F082E090E0A82E8AEF95E00E944521E8
:104630008A2D0A2C000C990B3C012FEF621A720A8A
:10464000629420EF62225C2C5A18E81AF90A8DE372
:1046500096E00E946014109348060093470664E7B2
:1046600070E08BEF94E00E940B354BEF54E060E07C
:1046700080E00E94ED1641E952E0662D80E00E9444
:10468000ED16912C812C712C852D870D73949091B2
:104690008E01891780F4C701880D991DB89EA0016D
:1046A000B99E500D1124405F5E4F672D6295607F6B
:1046B0008CE00E94ED168FEF881A980A23E07212A0
:1046C000E3CF8AEF95E00E941B218111C0CFDD204E
:1046D00071F086E00E94F30CDD24D394892B39F02D
:1046E0006AE070E080E090E00E94030ED12C86E04A
:1046F0000E94F30C892BC1F4D11014C00E94F1194F
:10470000C0920F05DF91CF911F910F91FF90EF9015
:10471000DF90CF90BF90AF909F908F907F906F90E1
:104720005F900895DD24D3949C2E65CF7F928F9265
:104730009F92AF92BF92CF92DF92EF92FF920F9330
:104740001F93CF93DF937C0186E00E94F30CC1E0BE
:10475000892B09F0C0E085ECC82E89E0D82ED0E284
:104760009AE0792E0E94E617009122051091230508
:104770008AEF95E00E9445214801B12CA12C8DE3E0
:1047800096E00E946014D0924806C0924706F70156
:104790004081518160E080E00E94ED161092770622
:1047A000D093780681E992E00E94841D709277068A
:1047B000D093780601151105A1F588E690E00E94D6
:1047C000601D8AEF95E00E941B218111D8CFCC2378
:1047D00069F086E00E94F30CC1E0892B39F06AE0B1
:1047E00070E080E090E00E94030EC0E086E00E944E
:1047F000F30C892B09F0B6CFC11111C00E94F11939
:10480000C801DF91CF911F910F91FF90EF90DF9042
:10481000CF90BF90AF909F908F907F900895C1E010
:10482000A1CF4AE0C501B4010E94911D83E992E045
:104830000E94841DF70182819381009711F20E94EA
:10484000841DBFCF2F923F924F925F926F927F92C3
:104850008F929F92AF92BF92CF92DF92EF92FF9290
:104860000F931F93CF93DF9300D000D0CDB7DEB767
:104870007C01942EFC0120803180772473944111B7
:1048800001C0712C70E0759567956A83892D90E061
:104890006250710910921705109216057093150554
:1048A0006093140521E030E0309313052093120546
:1048B000909323058093220586E00E94F30C6624E2
:1048C0006394892B09F0612CCC24CA943FE7D32E42
:1048D00045ECA42E49E0B42E0E94E6170091220573
:1048E00010912305502E980133273C832B83C90157
:1048F000870D911D77FC9A9589199109712C97FD67
:1049000006C08330910514F082E090E0782E8AEFA3
:1049100095E00E944521272D072C000C330BC9017F
:104920000196482F4295407F49832C9DC0012D9DC3
:10493000900D3C9D900D1124EB81FC81E80FF91F37
:10494000EE0FFF1FFC83EB838DE396E00E94601463
:10495000B0924806A0924706F7014081518160E07D
:1049600080E00E94ED16F5E92F16F2E03F0661F4B3
:1049700040910F0526E0429FA0011124405F5E4F49
:1049800060E086E30E94ED1641E952E0698180E033
:104990000E94ED1688248394912C412C4394852DFC
:1049A000840D87193A81831788F4F401EE0FFF1FF5
:1049B0008B819C81E80FF91FEE0DFF1D4081518115
:1049C000642D6295607F8CE00E94ED169FEF891A3E
:1049D000990AE3E04E12E2CF8AEF95E00E941B2194
:1049E0008111B2CF662071F086E00E94F30C66243C
:1049F0006394892B39F06AE070E080E090E00E94D7
:104A0000030E612C86E00E94F30C892BF1F46110F7
:104A10001AC00E94F119852D0F900F900F900F90E2
:104A2000DF91CF911F910F91FF90EF90DF90CF908A
:104A3000BF90AF909F908F907F906F905F904F90BE
:104A40003F902F90089566246394902E45CF1F9336
:104A5000CF93DF93EC01162F0E941235181739F00F
:104A6000612FCE01DF91CF911F910C941A35DF9108
:104A7000CF911F910895AF92BF92CF92DF92EF92A4
:104A8000FF920F931F93CF93DF936091AD0182E06C
:104A900090E00E9427256091AC0183E090E00E94A5
:104AA00027256091A70184E090E00E94272560916E
:104AB000A60185E090E00E9427256091A10186E093
:104AC00090E00E9427256091FC0187E090E00E9421
:104AD00027256091FB0188E090E00E9427256091E6
:104AE000FA0189E090E00E9427256091FE018AE0AA
:104AF00090E00E942725609118058BE090E00E94CD
:104B000027256091DB018CE090E00E9427256091D1
:104B10000F058DE090E00E94272560918E018EE0C8
:104B200090E00E9427256091BC018FE090E00E94F8
:104B3000272580E1E82EF12C10E006E080918E011F
:104B40001817B8F5109F60011124D0E0C0E0FE01F5
:104B5000EC0DFD1DE05FFE4F6081C7018C0F9D1FB6
:104B60000E9427252196C630D10589F7670186E086
:104B7000C80ED11C88E0189FE0011124C25BDE4FF3
:104B80008EE0E80EF11C69812296C6010E9427255D
:104B9000560182E0A80EB11CFE0132976081C60169
:104BA00001960E9427256501AE14BF0461F71F5FBF
:104BB000C5CFDF91CF911F910F91FF90EF90DF90C4
:104BC000CF90BF90AF9008958F929F92AF92BF9277
:104BD000CF92DF92EF92FF921F93CF93DF93CDB7E7
:104BE000DEB7CC5CD1090FB6F894DEBF0FBECDBFE7
:104BF00041E050E0BE016F5F7F4F8FE20E94CB0922
:104C0000672B682B692B09F054C089818F73803220
:104C100009F04FC0CE0101967C015E0191E4A90E1E
:104C2000B11CCE018F539F4F0E94400BCF53DF4FDB
:104C300088819981C15CD040F701819391937F0174
:104C4000CB53DF4F88819981C55CD04097AF86AF49
:104C5000E258FF4FC753DF4F88819981C95CD0402C
:104C600091838083AE14BF04E1F6CE0101960E94C9
:104C70009E18C090BC01D12CF12CE12CC616D70691
:104C8000E806F90624F481E080932F0512C0C501DF
:104C90000E949E18C616D706E806F906A4F3CE01B0
:104CA0008F579F4F0E949E18C616D706E806F90632
:104CB00054F390E080E00E94860D83ED9EE0019722
:104CC000F1F78EE00E94AD19BC0190E080E00E94F7
:104CD0009D364B015C01809101019FEF980F9093ED
:104CE0000101811106C00E94DB1990933A0580935F
:104CF000390520917D0630917E0640917F065091C6
:104D0000800660E070E08FE793E40E9483350E94A4
:104D10006736CB010E94860DC090F704D090F8044E
:104D2000E090F904F090FA04A7019601C501B401DE
:104D30000E9483352DEC3CEC4CE45DE30E9454373B
:104D4000A70196010E9484356093F7047093F804DC
:104D50008093F9049093FA040E94421C60913E05EE
:104D600070913F0590E080E00E949D364B015C0110
:104D7000C0907906D0907A06E0907B06F0907C0691
:104D8000A70196010E94F035811151C020912B0599
:104D900030912C0540912D0550912E05C501B4018F
:104DA0000E9483354B015C0120E030E0A9010E94A4
:104DB0004F37181694F520E030E040EA50E4C50182
:104DC000B4010E944F37181694F160913E0570911E
:104DD0003F0590E080E00E949D36A70196010E9469
:104DE00083354B015C0120E030E0A9010E944F3780
:104DF000181664F520E030E040E85FE3C501B40137
:104E00000E94F035181664F1C701B6010E946E3693
:104E100070933F0560933E0523C020E030E040EAF8
:104E200050ECC501B4010E94F03587FFCECF6091F0
:104E30002B0570912C0580912D0590912E050E94D7
:104E40006E3670933F0560933E05BFCF20E030E0A3
:104E500040E85FEBC501B4010E944F3787FFD4CF14
:104E60006091290570912A0590E080E00E949D36AE
:104E700020912B0530912C0540912D0550912E0548
:104E80000E9483356B017C0120E030E0A9010E9483
:104E90004F3718160CF075C0C701B6010E946E3668
:104EA0006530710508F071C08091FF01811105C066
:104EB0008091FD0181110E94F11981E08093FF0131
:104EC0001092FD0180913E0590913F05853FF1E0F4
:104ED0009F0710F0109200012091000121113EC0A7
:104EE000843F9140D8F590E080E00E94860D0E94BA
:104EF000F11911E0109300010E94C1220E943B258C
:104F000010932F058EE00E94AD19BC0190E080E067
:104F10000E949D366093F7047093F8048093F9041F
:104F20009093FA04109221058091290590912A0509
:104F300026E930E0309317052093160520E931E08B
:104F400030931505209314052AE030E030931305C3
:104F5000209312059093230580932205C453DF4FBD
:104F60000FB6F894DEBF0FBECDBFDF91CF911F917A
:104F7000FF90EF90DF90CF90BF90AF909F908F9079
:104F80000895C701B601905889CF1092FF019ACFBA
:104F90000C9412351F920F920FB60F9211242F937B
:104FA0003F938F939F93AF93BF938091E70490912A
:104FB000E804A091E904B091EA043091E60423E00A
:104FC000230F2D3758F50196A11DB11D2093E6043E
:104FD0008093E7049093E804A093E904B093EA0473
:104FE0008091EB049091EC04A091ED04B091EE045B
:104FF0000196A11DB11D8093EB049093EC04A09346
:10500000ED04B093EE04BF91AF919F918F913F91CA
:105010002F910F900FBE0F901F90189526E8230F29
:105020000296A11DB11DD2CF1F920F920FB60F9203
:1050300011242F933F934F935F936F937F938F939D
:105040009F93AF93BF93EF93FF938091B900887FB5
:10505000803609F44AC0F0F5883209F4A7C018F583
:10506000803109F49BC0B8F4882309F4F9C0883072
:1050700009F494C0FF91EF91BF91AF919F918F91EF
:105080007F916F915F914F913F912F910F900FBE44
:105090000F901F901895883109F488C0803251F71D
:1050A0008093640514C0803409F49DC040F48033BB
:1050B000B9F38833F9F68093640585ECB0C0803588
:1050C00009F485C0883509F496C0883499F60E94A1
:1050D000CE20D0CF883909F48CC038F5883729F034
:1050E00050F4883611F0803729F683E08093660506
:1050F0001092C50457C0883809F47BC0803919F074
:10510000803809F0B7CF8091C504803208F071C0B3
:10511000E091C50481E08E0F8093C5048091BB00AF
:10512000F0E0EB55FB4F80833DC0803B39F0E0F46D
:10513000803A09F479C0883A09F09CCF84E08093E2
:1051400066051092A4041092A304E091EF04F0917C
:10515000F00409958091A30481110FC081E0809330
:10516000A3041092830409C0803C09F4A6CF883CB4
:1051700009F4A3CF883B09F07DCFE091A40481E03E
:105180008E0F8093A404F0E0ED57FB4F8081809355
:10519000BB009091A4048091A30429C08091410593
:1051A0008093BB0085EC8093BC0064CF9091630535
:1051B00080916205981758F5E091630581E08E0FA4
:1051C00080936305F0E0EE5BFA4F8081E9CFE091D8
:1051D000630581E08E0F809363058091BB00F0E052
:1051E000EE5BFA4F8083909163058091620598177A
:1051F000C8F285E8D8CFE091630581E08E0F8093F7
:1052000063058091BB00F0E0EE5BFA4F80838091F4
:10521000650581115CCF81E08093400584EA80932D
:10522000BC001092660526CF85EC8093BC001092DE
:1052300066058091C504803230F4E091C504F0E049
:10524000EB55FB4F10826091C50470E0E091F104D2
:10525000F091F20485EA94E009951092C5040ACF12
:105260001092640534CF18950F931F93CF9310922B
:10527000D3051092D20588EE93E0A0E0B0E08093D1
:10528000D4059093D505A093D605B093D70585E6B0
:1052900092E09093D1058093D0058DE796E09093AE
:1052A000A4068093A30681E896E09093A2068093DB
:1052B000A10689E796E09093A6068093A506109232
:1052C000BF061092B7061092B8061092B906109257
:1052D000BA0680E090E0AFE7B3E48093BB0690931A
:1052E000BC06A093BD06B093BE0684E690E0A0E0A5
:1052F000B0E08093B3069093B406A093B506B09344
:10530000B60681E090E090939E0680939D06909370
:10531000A00680939F068093C00680E090E0A0E303
:10532000B1E48093850690938606A0938706B09398
:10533000880680E090E0A0E0BFE380938906909328
:105340008A06A0938B06B0938C0680E090E0A0E8DC
:10535000BFE380938D0690938E06A0938F06B09343
:10536000900680E090E0A0E3B1EC809391069093EA
:105370009206A0939306B09394068DEC9CECACE45B
:10538000BDEB8093950690939606A0939706B093F5
:10539000980680E090E0A0E2B1EC809399069093AB
:1053A0009A06A0939B06B0939C060E94A10E0091C2
:1053B000B3061091B4062091B5063091B606601B75
:1053C000710B820B930B6093A7067093A8068093D2
:1053D000A9069093AA061092F9051092F8058AE79B
:1053E00098E0909376068093750610927706109257
:1053F00078061092120687E792E09093F705809363
:10540000F6051092FB051092FA0510920F06109205
:1054100006061092070610920806109209068FEFF2
:105420008093100680931406E8E1F6E0CFEFC19375
:1054300086E0EE32F807D9F787E091E19093FF0517
:105440008093FE0588EF91E190930106809300061A
:105450008AE697E1909303068093020686E39EE036
:10546000909305068093040630E020E040E069E078
:105470008AEF95E00E9407111092460610924506A9
:1054800084E898E090932F0680932E0680E995E0BB
:10549000909333068093320681E080933406109215
:1054A000350610925206109272068093730680930E
:1054B00074068FE792E090933106809330068AEF6E
:1054C00095E00E947E121092410610924306C0930E
:1054D0004206C0934406E0913006F0913106028006
:1054E000F381E02D8AEF95E0099587EE98E090939F
:1054F0004806809347061092550681E18093230663
:10550000C0932406C093250680ED95E09093DD05B9
:105510008093DC0581E38093E0051092DF05109213
:10552000DE058CE490E29093F1058093F00586EF20
:105530009EE19093F3058093F2058CED95E09093B6
:10554000F5058093F4051092E705CF911F910F9117
:105550000895CF93DF93CDB7DEB761970FB6F89478
:10556000DEBF0FBECDBF789484B5826084BD84B5A4
:10557000816084BD85B5826085BD85B5816085BD4E
:1055800080916E00816080936E0010928100809106
:10559000810082608093810080918100816080938E
:1055A0008100809180008160809380008091B100B3
:1055B00084608093B1008091B00081608093B000DE
:1055C00080917A00846080937A0080917A00826072
:1055D00080937A0080917A00816080937A00809134
:1055E0007A00806880937A001092C10060E08EE0BB
:1055F0000E944A0D60E08FE00E944A0D61E085E064
:105600000E944A0D61E089E00E944A0D62E087E055
:105610000E944A0D62E088E00E944A0D62E086E046
:105620000E944A0D62E08AE00E944A0D90E080E00C
:105630000E94860D60E085E00E941C0D80917A003A
:10564000876080937A0080917A00886080937A00E6
:1056500078941092F4041092F30410926D05109255
:105660008F050E94D40E88EC9CE09093F004809308
:10567000EF0489EC9CE09093F2048093F104809114
:10568000DE059091DF05892B51F061E08091E10505
:105690000E944A0D61E08091E1050E941C0D41E0ED
:1056A00050E0BE016F5F7F4F81E20E94CB09672B04
:1056B000682B692B09F071C0898184608983BE01E0
:1056C0006F5F7F4F81E20E94D809672B682B692B9F
:1056D00009F063C041E050E0BE016F5F7F4F81E29F
:1056E0000E94CB09672B682B692B09F056C0898172
:1056F00088608983BE016F5F7F4F81E20E94D80975
:10570000672B682B692B09F048C090E080E00E946D
:10571000E609672B682B692B09F03FC084E090E015
:105720000E940C0A672B682B692BB9F590E080E08A
:105730000E945F0A672B682B692B79F541E050E0E6
:10574000BE016F5F7F4F85E20E94CB09672B682BFC
:10575000692B19F589818F7C8983BE016F5F7F4F2B
:1057600085E20E94D809672B682B692BB1F480E091
:1057700090E0A8ECB2E48093E8059093E905A0934B
:10578000EA05B093EB051092ED051092EC0510922E
:10579000EF051092EE051092E7058091E705813044
:1057A00009F4A8C0A090EE05B090EF058090EC053C
:1057B0009090ED05C090E805D090E905E090EA05ED
:1057C000F090EB0522E08216910409F4B4C108F0D0
:1057D00084C181E08816910409F491C104E010E0CD
:1057E000F1E0AF16B10411F404E110E020E030E084
:1057F00048E451E4C701B6010E94F03587FDADC110
:105800002DEC3CEC4CEC5FE3C701B6010E94F03597
:1058100018160CF0ABC120E030E048E451E4C701B9
:10582000B6010E94F03518160CF09DC120E030E062
:1058300048EC51E4C701B6010E94F03518160CF08F
:1058400098C120E030E048E452E4C701B6010E946C
:10585000F03518160CF090C120E030E048EC52E42E
:10586000C701B6010E94F03518160CF088C120E07F
:1058700030E048E453E4C701B6010E94F035181641
:105880000CF056C120E030E048EC53E4C701B6010B
:105890000E94F03518160CF075C120E030E048E4A5
:1058A00054E4C701B6010E94F03518160CF46DC11E
:1058B00088E090E00E945F0A672B682B692BD1F487
:1058C000C8010E940C0A672B682B692B99F4C092BF
:1058D000E805D092E905E092EA05F092EB05909296
:1058E000ED058092EC05B092EF05A092EE0581E007
:1058F0008093E70584E08D87BE01635F7F4F85E27B
:105900000E94D80987E18E87BE01625F7F4F80E2E7
:105910000E94D80986E090E00E94E609E091FE0529
:10592000F091FF0530E020E040E06AE08AEF95E08A
:1059300009958AEF95E00E9445218AEF95E00E9443
:105940001B21382E8111F9CF60E08AEF95E00E948B
:10595000F516E091FE05F091FF0530E020E040E013
:105960006BE08AEF95E0099590E080E00E94C827FF
:10597000182F81E090E00E94C827912F8C36974E17
:1059800009F006C182E090E00E94C827182F83E04A
:1059900090E00E94C827912F9093AD018093AC01B5
:1059A00084E090E00E94C827182F85E090E00E94D4
:1059B000C827912F9093A7018093A60186E090E0DD
:1059C0000E94C8278093A10187E090E00E94C82729
:1059D0008093FC0188E090E00E94C8278093FB013F
:1059E00089E090E00E94C8278093FA018AE090E065
:1059F0000E94C8278093FE018BE090E00E94C82798
:105A000091E0811101C090E0909318058CE090E046
:105A10000E94C82791E0811101C090E09093DB01C2
:105A20008DE090E00E94C82780930F058EE090E003
:105A30000E94C827282E80938E018FE090E00E945C
:105A4000C8278093BC015EE4852E51E0952E60E16D
:105A5000A62E61E0B62E70E1E72EF12C231409F496
:105A6000A3C010E000E0C701800F911F0E94C8276B
:105A7000F501E00FF11F80830F5F1F4F0630110506
:105A800091F76701F6E0CF0ED11C27012EE0420E00
:105A9000511C3401C6010E94C827082F10E0102FA6
:105AA0000027F301118300837601F2E0EF0EF11C71
:105AB000C60101960E94C827082BF3010193119398
:105AC0003F0167014E145F0429F73394F8E08F0E0D
:105AD000911C26E0A20EB11CC1CF93E0891691045F
